:400000000020002011000000c1080000c10800001c4a1d4b70b51a601c4b1d4d1a681023134000d12b602b68802b29d1194b1c79e4b2012c14d90021052000f0edf801211d
:400040000400052000f0e8f8e4b2c0b2002c03d0041e05d0032403e0441ea0410224241a0023210002202b6000f0d6f8002807d0012c05d82100022000f0cef800f020f91e
:4000800001f0ccf86588edac380003405400034088000020940000200000000000000000000000000000000000000000000000000000000000000000000000000000000097
:4000c000000000000000000000000000000000000000000000000000000000000000000038000132626e0101ba11012a0000000000000000000000000000000000000000cd
:4001000010b5064c2378002b07d1054b002b02d0044800e000bf0123237010bd080100200000000020130000084b10b5002b03d00749084800e000bf07480368002b00d1e7
:4001400010bd064b002bfbd09847f9e7000000000c010020201300009000002000000000022100200f4b30b51a681025520052081a600d4a0d4c11710d4af8219850012290
:40018000090152425a501959a9431951f42109015a5080315a508021d8661a6809060a431a6030bd0000054024010020480f0000880f000070b510498e688a8a002e01d1e7
:4001c000067017e0c2230d4c9b00e5581f231d402b1c082d00d908239bb20370d020d3189bb28000934204d92558b554013292b2f8e78a8270bdc04624010020000005409e
:40020000034a044913689bb20b4313607047c0460ced00e00400fa05013810b50b2830d80902494201f064f806080a0c0e10141216191b20164b13e0164b16e0164b0ae01e
:40024000164b12e0164b0be0164b09e0164b02e0164b00e0164bc91815e0164b05e0164bc9180878c0b212e0144bc9180a7848788c780002230418430300c87813430006c5
:4002800004e001be00210b7848780002184310bdc0ff0100c1ff0100c5ff0100c9ff0100d0ff0100d1ff0100d6ff0100d2ff0100d4ff0100d8ff0100dcff0100e0ff01004d
:4002c00000470000044b1a0060321278002a02d1613301321a70704724010020f7b5c37d827d1b0213430122324d01009446ab425dd182784478cb78120222431b0413430b
:400300001a000b791b06134351d08a7a4c7acb7a120222431b0413431a000b7b1b06134345d08a794879120202431202501cff30214ec418b4423ad80f780400002101335f
:40034000ff339b180193019b834205d0037801309c466144c9b2f6e701234942c9b29c468f4224d1631cff33b34220d8023b5b88ab421cd1ff34217ae37909021943607a6e
:4003800000230a290ed080250c4cad00141952195118a14204d0227801349b18dbb2f8e75b42dbb2c31a581e8341dbb29c466046febdc04659430000ffff01000a020000fb
:4003c000f7b5194c194d2b590194db032ad50026ff271748330102006432d218117ac9b2ff2914d0c318986e01389866986e00280dd117720f4a5432944664461278013a48
:40040000d2b222701a6f002a01d01b6f984701360f2eded1074b54331b78dbb2002b01d1019aab50f7bdc04610d00000001000e02401002024020020074b800010b5c45842
:40044000032359430433c9b28b408a40a06898430243a26010bdc04624130000f7b500236a464f4cd3714f4a0125a7580222ff32174201d01f001d00fb0636d54a4e337918
:40048000042b0ad06b46d81dfff794fe0521b28a01203369317198470500022333710023b382812380209b00e25840020243e250e1583e4a1140e1500133ff33e158014347
:4004c000e150e1580a40e25001223949635893436350f82310211b01e250364aa3588b43a350f42330221b01e2507b0633d52e4b1a79022a2cd1626e294ed2060ed50421bb
:400500000022197110001b699847002820d0f82201231201b350264ab35003e005221a71002d15d0f423302210211b01e250214a0125a3580b43a3501f4b1a0055321278cc
:40054000002a02d1164bdd6605e059331d7002e002230025e366f4231b01e750002d02d1fff7fefd1be0154b0d4ad658f30706d500220d4b04211b69100098470500f82325
:400580001b01e6500e4be658f30703d56b46d81dfff710fefc231b01e650002de0d0f7bd000005404c0f000024010020fffffeff880f0000480f0000240200208c0f000025
:4005c000cc0f0000f0b500254b4bcbb0029501900395984200d98ae0802248495200e0310aa800f08ffeff22454b464c0893464e464b08af7a6027603360c04623681b0f3a
:400600000f2b03d1236813401d0004e023681b0f0a2b00d025680295029d002d69d100f02cfe3b4a3b4b04a960320493059221603949344b3160c0462168090f0f2902d192
:400640001d68edb204e01968090f0a2900d01d680395039b002b12d1304d2a492560304d3560c04625682d0f0f2d02d10b68dbb204e00d682d0f0a2d00d00b680293029b67
:40068000002b18d1274908910199089d09042943254d089127601b493560c04625682d0f0f2d02d10b68dbb204e00d682d0f0a2d00d00b680293039b002b15d11b4d06a992
:4006c0000695079221601a490e4a3160c0462168090f0f2902d11368dbb204e01168090f0a2900d01368039300f0cbfd01e00423029302984bb0f0bdff01000024020020d9
:40070000b6d70000080010400400104004000080a4030020b6e9000016000080b6e8000015000080b6d8000005000080b6ea000017000080f7b500f0a0fd7823204a9c4663
:40074000150078350190ff35ec7d9444002c33d06e7c002e30d160467732ff32d38a6146c05cc918844649781648009161460170684615490078df3108700121124f6974ea
:400780006037bd7911480d43bd71057c407c104f8140ad00ed5922332f689bb28f431021ff312f608b4201d8d38200e0d682044b013c7833ff33dc75019800f062fdf7bdc1
:4007c000a403002002030020240200202405002024130000f8b5050000f04ffd1e4b04001a0019001f007832ff32d07d7731ff3178378a8a082815d1002a02d11132ff3250
:400800008a8219007733ff339a8a0025223a93b281227831ca54cb1820005d7000f031fd280017e00026bd54551cadb27e551025223292b2ff35aa4201d88a8200e08e82ba
:4008400078330130ff33d875fff774ff200000f018fd0120f8bdc046a4030020012110b5134c084213d00022124b7833ff335a74db7d934209d1104a5269137053702200cb
:40088000603293798b43937101e0fff753ff6034a379002b0ad0084a0849137c507c012282409b0059580b6893430b6010bdc04624020020a40300202405002024130000a7
:4008c00010b500f0e1fc03680c2b00d1fee7fee770b5012856d10f25414b5c7e190026092540022a18d8012a0ed00024a64275d1022d07d11a7e3b4b0400e0339b183a4a83
:40090000d3616be0002d69d1364b0a7e60339b18354a0124d36161e0002d14d00400002e50d1022d4ed11c7e80232e48023ae0305b0092b200191b1b9a4200d91a001a31b0
:4009400000f0e0fc3de027490d0055352870002c10d11c7e062c0dd160319c7e8979214208d0197c5b7c214c984089000c5921680843206001241c4b023a591c92b2cc7799
:400980005a841fe0002404291cd182230826184d9b00ea58ea3b1449ff3b1340cc69f31adbb220001a1cb34200d9321cd2b2a31890229200834203d004780130ac50f9e713
:4009c000cb610124084b0133d97fc9b2002905d1812203485200183000f082fc200070bd24050020240200202406002024130000000005400023f7b5334c344d34489a00d0
:400a00002100032b00d8a95801338150222bf6d172b6ff22002601272e4b07251a602e4bfb3a1e602d4b2e4c1f602e4b1a602e4bfc321a602d4bfd3a1a602d4b21321a60a0
:400a40002c4b123a1a6000f018fc23680190ab432360294b294a1b782949dbb21360294a1368ab431360284b0a6818787f239a43034013430b60322000f0f6fb0522236890
:400a80003220ab431343236000f0eefb062223680198ab431343236000f0f3fb80221b4b52001a601a4a1b4b1a601b4b1b4a1e601b4b1e6011683b00b14200d111601949c3
:400ac0000a6813430b60f7bdc10800000000000000000020000502400001024008010440080f034000020440080204400005044008050440300010407df3ff0f0c0f03406b
:400b0000180f0340100f034064f3ff0f0002014000ff008000000140280003408800002000010140000010409123f0b5dc499b00c8580123db4c87b0621dd377ff231b0219
:400b40000340a82000918001834201d10223d377d54d81222800d54ed54b520000211830e361370000f0bcfb8c22d248603752000021783000f0b4fb80220021380000f041
:400b8000affb91233b70893b7b709123009a9b00d35821227b8033009c331a6013233200bb808c32123b1370c34ac4497267f267bf4a31676a61a21dd3770022e31dda774a
:400bc00002230534e27fb1672b74012a00d10333012421006b746d7cb94aa940136802200b43136029000422fff726fc0f210800ad00a840b34a27001368b34d83431360e9
:400c00000823b24a2b70136820008b43136000210222fff711fcae4af02013682343136000f022fb9f4bab4a0733d97fd07f8f40a94a009383009e5873683b4201d140234a
:400c400014e00322fff7f8fb3368f020bb43336000f00afb9f4ba04adb7f9b009b58009a5b68d27f9440234201d042232b7000268c4f0022fb1dd97fbb1dd87ffff7dcfb3e
:400c8000914b964a1b7881210093954bc1251e601a6680228900ad005202de665a505a51904af4209e500122fe24524200011a508d4824041e5008381a508c481e508446e6
:400cc00008381a5000981a6840002043c424a40018510820113cff30ff3c18510134ff3418518348834c024302201a600122e07020716d4822701830a06081206a464000e0
:400d0000a08112787c48627020610422fe20a682a0705a505a515a59784802405a515d58704a284058504221ff31995062464139ff399950791dc97f03934b1e5a425a416e
:400d400013001100802219336d4892059b009b181860012309318b4019006a4b00970122196005200821584dfff766fb62b6009f65480837fe77fff7b1fab04201d0042338
:400d8000fb776248fff7aafa002805d00821009a0832d37f0b43d3775d4b5e481a68190092b2824208d1002201211a60009a0832d37f0b43d377e5e01a681868009b92b2ad
:400dc0000833de7f80b2330712d4534b984213d004235248334000d004e2824219d04b4a4948d669c769be4200d3ffe102000ce00423334002d0c5e001230ae0474eb24239
:400e000007d0454a904204d03f4a928a4448824201d1002204e04348824202d0fa2292006a802b716b889bb20193002b04d180330b60fff7e5f9a5e0220000232000ff21b4
:400e40006132137064301a018218013311720f2bf9d10025154b344e54331d70334f344a344bf551f250344b344a1a6000f005fa2100ff23b446029764312a018f183f7ada
:400e8000eeb2ff2f00d133008a18127a002a57d1064a54321378013bdbb21370330054e000f0ff0f24060020240500202402002002030020a4030020626e010138000132cc
:400ec00000020440000202409400002000010240000104402a060020241300008828004000000540480f0000880f0000c80f00000001008024010020d1080000fffffeff11
:400f00005d04000000e100e0c0ff0100c0fe0100880000204c420000324200003142000059430000ffff0000001000e010d000007fbb000014d000003c000020c10300004b
:400f400001350f2d99d1ff2b1ad069462200898864321b019952e418d3180022a44921671a72019ba366a34b1a0054321278d2b2002a00d124e154331a780132d2b21a705d
:400f800000f07ff98020fff725fc0822002104a800f0a6f9974990200a00009b60320833db7f107053705a0703d5802204ac920007e0914a52681202120c01321402e034c5
:400fc00092b21b0703d5802304a89b0007e08b4b5b681b021b0c01331802e0309bb20f000e00e0256037019770369c4688cd88c60d00783548cc48c5803118c818c1019bfd
:4010000013211a8562465a851423009a13857c4b7c4a5981da801a8101930292009b0133db7f002b00d1bfe0774c724f637e1b0900d0a3e0009b207e5a8c0638d2b20628ba
:4010400000d9cde000f054f904cc08cc2c363e00a07efff703fc91e0012a00d8c0e0a27e0523522a00d086e0e27e002a12d0012a00d080e0607c237c824064499b0059584b
:401080000b681a430a6072b60022614b1a60fff7b7f873e00720fff7e1fbfff761f807e0a27e0523502a66d15a4b4f3a60331a70022360e0a37e012b00d189e0022b59d1d8
:4010c0004e4886e00523032a55d9a27e462a52d1e27e012a31d14f4b60331a780723002a49d0657f227f2d021543009a128daa4241d8019ad288aa4203d2019a1289aa42e3
:4011000039d1029b9d4201d13c4e04e0ff235b009d420bd1384e3000fff7e0f80023984200d1f369de2201335200bb502800fff749fa0223002800d00533e27e002a1ad147
:40114000344b60331a780723002a14d0617f227f09021143019a52898a420cd2029a914209d838008022e0300902520000f0caf8032300e009231800fff72cfb81222248d6
:4011800052001830002100f0abf8009b5a1c0023d3773a005937553213703a789a4203d001223b70039bda661a4b61331b78002b00d133e78022164b1a60fff721f82de740
:4011c00064461549625007226146029c0a51d2e60948fff783f802230028ccd00633cae70523c8e7824200d106e6044a01230ce6c502000024020020c0ff0100c0fe0100d7
:4012000094000020ff0100002405002024130000880000202401002018d00000f8b500250e490f4b01394a1c14d000221f685c689e68a018b24203d0b858a0500432f8e797
:401240000200de68141aa64201d020c2fae710330139e8e700f01ef8fff766fc0100000064130000000000000230800803d00138fdd1c046c046c0467047eff3108072b663
:40128000704780f310887047014b18687047c046000100200e4b70b500251e000d4ce41aa410a54204d0ab00f35898470135f8e700f046f8084b00251e00084ce41aa410d0
:4012c000a54204d0ab00f35898470135f8e770bd4c1300004c1300004c1300005413000003008218934202d019700133fae7704702b4714649084900095c49008e4402bcba
:401300007047c046002310b59a4203d0cc5cc4540133f9e710bd0000a500000000140000000000000000044000010440000204400003044000040440000504404300000095
:40134000f8b5c046f8bc08bc9e46704729010000f5090000f8b5c046f8bc08bc9e46704701010000781300009000002078000000480500000000000000000000080032007d
:401380000200ff010002ff0100000000000000000000000000000000000000000000000000000000000000003c1300000000000000000000000000000000000000000000da
:4013c00000000000000000000000000000000000000000000000000000000000000000000000000000000000a000002000000000000000000000000000000000000000002d
:40140000003000200119000089a0000089a00000000000000000000000000000000000000000000000000000000000000000000000000000000000000000000000000000f0
:40144000000000000000000000000000000000000000000000000000000000000000000000000000000000000000000000000000000000000000000000000000000000006c
:40148000000000000000000000000000000000000000000000000000000000000000000000000000000000000000000000000000000000000000000000000000000000002c
:4014c000000000000000000000000000000000000000000000000000000000000000000059070033626e0200ba11012a000000000000000000000000000000000000000091
:401500005943040000200004fb3cb4040100010000020b000000000000000000000000000c0214000000000000000000200218000000000000000000e803000000000000a2
:401540000201020000000100010301063f070100010101000101000000000000000000002c910126969001265a900126000000000000000000000000000000005a900126bb
:40158000c8d00200c8200300c8c00300c8b00400c8400600000000005a00c800c800c800c800c80000000000130038023c02440248024c02500200005c0200000000000036
:4015c0003c00000000000000000000000000000000000000000074020000000000000000000000000000000000000000000000000000000000000000000000000000000039
:4016000000000000000000000000000000000000000000000000000000000000000000000000000000000000000000000000000000000000000000000000000000000000aa
:40164000000000000000000000000000000000000000000000000000000000000000000000000000000000000000000000000000000000000000000000000000000000006a
:40168000000000000000000000000000000000000000000000000000000000000000000000000000000000000000000000000000000000000000000000000000000000002a
:4016c00000000000000000000000000000000000000000000000000000000000000000000000000000000000000000000000000000000000000000000000000000000000ea
:40170000b404e9f6437970726573730014000000418000ffb4040080000000000000e9f6b404e9f6000000000101000000020000000000000001003c04140a0208140a021a
:4017400032010a000446010004320100041e01000c000000000000000000000018000000000000000000000000000000000000000000000008000201000000000000000058
:401780000000000000000000000000000000000000000000000000000000000000000000000000000000000000000000000000000000000000000000000000000000000029
:4017c00000000000000000000000000000000000000000000000000000000000000000000000000000000000000000000000000000000000000000000000000000000000e9
:4018000000000000000000000000000000000000000000000000000000000000000000000000000000000000000000000000000000000000000000000000000000000000a8
:401840000000000000000000000000000000000000000000000000000000000000000000000000000000000000000000000000000000000000000000000000000000000068
:401880000000000000000000000000000000000000000000000000000000000000000000000000000000000000000000000000000000000000000000000000000000000028
:4018c00000000000000000000000000000000000000000000000000000000000000000000000000000000000000000000000000000000000000000000000000000000000e8
:4019000010b5044b83f30888034a044b1a6009f00ff9c046003000206588edac3800034010b5064c2378002b07d1054b002b02d0044800e000bf0123237010bd1801002075
:4019400000000000b8b90000084b10b5002b03d00749084800e000bf07480368002b00d110bd064b002bfbd09847f9e7000000001c010020b8b900009000002000000000ba
:40198000f0b5db4adb4b8db0db4c9a4201d8012300e00223d948237006f0e4fa00280ad02378012b01d1d64801e0ff20400006f0bffa08f09ffd0222d24b2024da613e3201
:4019c0001a623b3a5a62023a5a633e32da623d3a9a63cd4bcd491a680f2308689a430009d2b203401343ca49ca4acb48113b0b7013581700234313500023ff20143c2200cc
:401a00005a4301338a1890731f2bf8d1c34900240b0078331c700b0079331c70802301208026bf4d5b002b60be4abf4b36069a63da6c0243da64da6a3243da625864bb4a42
:401a4000bb48bc4e1060bc4abc4814509451bc4cbc4e1651dc6b0491a4b20695dd6badb2ac42fbd00526b04ce46b16508026a5b2760211583142fcd0db6b9bb29d4202d9aa
:401a800080256d022b431c1b002304997a310c80135062b607220125ab4cac4e236805209343053a134323603368ab43dbb22b43336008f0b9fb4022a54b1b6804922b4282
:401ac00014d02368393a9343043a1343236033680520ab43dbb2336008f0a6fb42229c4b1b6804922b4201d10823049307222368502593432360894c6a462300127c7c33e4
:401b000000261a707d34934b1022002120001d7009f0b6fd0122904b02211e615e618d4b01205a708c4b2a009e61de61102302938a4b01940093fc2308f0aefa012008f0bc
:401b4000e5fc8022864b92021a608022854b52001a80804bed3a5a80834b844a1e70844b31001a6090228348520009f089fd824d18223100280009f083fdf423764a7f4c6a
:401b800020325b00e2507e4b8022eb607d4b7e4920332b602023ab8091232a829b00cd582000310009f06cfd1323a380230020223a331a7091235b00e363230001222c3333
:401bc0001a70724a658016706e4a4c4c40321670220060495332059163491278079165490891b24200d01e7050220021684809f047fd230047331a78e023604d5b00ea54a7
:401c0000230054331a78ca23ff33ea5401216a46053be954127c059b00201a7190235b000293089b049a01935a4b0093fe2308f033fa8021079b584e1b784904f3181b7e80
:401c40000aa89b009a5993680b4393600021082209f016fd284b07961b78504e012b14d14f4806f0adf9431e9841c023fe2233804c4bff321a804c4b01321a804b4bec3a9a
:401c8000ff3a1a80c000912314e0494806f098f91422431e9841424b80005b683280414a1b0a1380164a404b1a80404bed3aff3a1a8092232b706870430708d43c4b5b68fa
:401cc0001b021b0c01331902e0319bb202e080230aa99b000822059310426bd1304a50680002000c01300202e032049280b265e0e0140000ff7f00009e00002000150000f7
:401d0000ff010000fc000140e80f00f0ec0f00f03401002000000a40680800003402002080e100e06588edac0000034060000020cd79000018d00000001000e010d00000a7
:401d400014d00000bf5d000008010440000104400401044094000020b402002055310000a00000209c000020890500207a0d0020e0030020e8030020c8030020fc0c002086
:401d8000080500203403002000f0ff0f88050020940e002035470000bcb90000a4000020c0fe0100a6000020a8000020aa000020c0ff010080200aaa049280008446e02072
:401dc000e04e0cc80cc630000cc90cc0049ade4e0aca0ac06b469b8aea6b2b8563466b85da4b1340c022d20113431922eb63d84b1a80e31cda7f231ddb7f1b021343042b05
:401e000005d93200043b41329b10137003e03300002241331a70631cda7fa31cdb7f1b0213430433e3187364e31dda7f23000833db7f1b02134332004832042b02d9043b96
:401e40009b1000e000231370631dda7fa31ddb7f31001b0213430433e318f36423002a331a7823002b331b7850311b0213430b80230028331a782300210029331b784031b8
:401e80001b021343e3187365b24bb34ab365b34bb348f365b24bcc331a60b14a079bc0321c331360662209f07dfdad4bac4a1b780492022b00d053708022069bd2011a6050
:401ec000a849a94ba9481960a94b08241a60802206990a60a74908601a6080223b6812061343c0223b60d200bb5801215b005b08bb50c123db00fa586420a243fa50fa5866
:401f00000a43fa5008f090f9d222d200bb5832205b005b08bb50d423974adb00fa50974a1033fa50964a1033fa50902210331201fa5008f079f93c21924bfa588a43224343
:401f4000fa50914a1278002a01d1904a146701248f4990487a5822437a507a58a240e2407a50cf218c4ab9508c4a1278002a03d0c2588f390a43c25008f04ef98823db00b9
:401f8000f85880239b001840f36d0cd1002b02d002000100984708f03ff9814a814bb9580b40bb5005e0002b03d000210122080098470221102001247b4abb580b43bb503a
:401fc0003b687a4a03433b60bb5816310b43bb500432bb582343bb50d023754adb00fa50803bf958734a0a40e021fa50fa5809030a43fa50aa229200b9586f4b0b40bb5083
:40200000c1239b00f958a143f9500021fa580243fa50080006f074fa684a694b00201a605a22684bff3298545c22ff329854013a9854654a1a60654a654b1a60654b664ac5
:402040001860664b1a600f22654b1a60654b1e32ff321a60644a654b1a60a122d200b958634b0b40bb50634b63491a6892b21a601a680a431a60614a614b80211a60049f3d
:40208000030088373c70020002f0b8fd63345d4b1b78002b01d002f00bfe5b4b1b78002b07d02c352b78db0743d5002009f01efa3fe09620013cc001e4b209f0a5fa002ca9
:4020c000e5d1eee72b006e331c782b007a331b78e4b2012b00d09de04c49082009f04ef81f4c072800d82de22300a2331b78002b00d06fe2464b1a001c0002233c32127843
:402100001a4201d000f01ffc09f087fa0e4b06001d0060352a780493002a01d000f02dfc300009f07efa374b1b78002b01d002f0bffd0b4d2b0087331c78002c01d100f070
:40214000f3fbbfe70c0d002034030020ff1fffff08070020ad380000c40b0020f92a0000f40a0020f971000078000020e170000000e100e05c0000201636141c5f6b3d00c8
:40218000143d00006408000000f4ff0f00ff0a40dc07000000000a4024040000340100201c060000fffffeff4c0400002c06000000020080fffff1cffefbffff4808002027
:4021c00044080020a005002075b10000499b00000c070020a8000a400f020000b4000a40bc000a40d0000a400a404101d4000a40000408c0e8000a4002000f7e4100410097
:40220000c0000a408a050020920500209c0b00209c0c00202b00c0331b68002004932b0083331b7806932b006f331b788c35079306f0eaf9069b071c073bdbb228800893d0
:40224000012b09d9011c0f22002006f097fe1022391c002006f092fe391c002006f016ffc04d3b042a001b0e099305908e3212880aab1a80bc4a2e001278002a00d0e3e0b6
:40228000002c00d028e7089a012a19d8002800d122e7069b072b09d1aa782100200007f023faaa780121200007f01efa0221002007f0ccfb00206e36307006f0cdff0be7a3
:4022c0002a0067321278002a5fd11a7806925e78bbb2002b08d092352f801121200005f0effca24b5c7013e0a04b5a78002a07d101325a7011210b32200005f0b9fd07e096
:402300001121200005f0c2fc002801d192352c80944c1422230092331d88049b52421b6a934900209847002823d0059b002b20d0069b002b03d1099b013b022b10d9002e5b
:4023400003d1fbb2013b022b0ad90222bbb2ff32934205d0874a934202d0874a934208d123008e331f8001237134237008210020e5e0002d00d0afe6280006f06dff2800fc
:4023800006f0b0fd22212800bae01e882000311c06f07cfe070001284cd12b0090331b889e4200d098e6c821049b22001b6a89002000059398476d4e002815d1049b20000f
:4023c0009b6af47198471221200005f079fc664b1f702b00a1331b78002b03d00c2383352b7079e6082123e3f378002b00d073e6f379002b0ad1049b2000f7715b6a9847fb
:4024000032221221200005f033fd65e61221200005f03cfc002800d05ee60024049b20009b6af47198472100200008f0d5fc0123f37051e6059b002b00d04de6200006f0f1
:4024400051fd222120005be0079a9f5c2a0067321278002a57d19a352b78002b07d0002f43d1414b2f701f700421380067e0002c3bd1330075331b78012b0bd13300a2336a
:402480001b78172b06d93200b032394b128814259a4200d11b256d42002f07d1330005256f331b78314a6d42d3185f72052432007532049b12781b6a012a08d13200a23228
:4024c0001278172a03d93200b032118800e028492a0000209847002807d1013ce4b2002ce5d1713634700421a2e2683633789f4200d1f1e50020377005f054fe092100203c
:4025000008f06afce8e5002c00d0e5e5022f0ed02a0074321278042a00d0dde5002f06d1079a51424a419b5c002b00d1d4e51521002005f0c5fb002004217136307008f081
:402540000bfdc9e5072835d109f067f823008a331b780500042b29d8180009f099f80f0f0f202300f40a0020650b0020fc060020881300000202000003030000c44a7c322d
:40258000d15c2300a17083331b78072b02d0002007f014f90121002006f0c0fd06e00122bc4b1a710121002008f0d6fc280009f038f899e5002803d1012107f047fa93e510
:4025c000230083331b78b44a9b0001009b580020984789e52300a4331a68002a00d1a2e01b689b0507d5230084331b78052b02d1002008f05dfda949112008f0bffd0500bf
:40260000012801d0062877d109f007f800210600009120230a00a24808f0eefa002819d0230067331b78002b03d1300008f0f9ff60e523009b4966331a78080001233b30d5
:402640005a40027020203c3113405a010b78834313430b70934b1a00383217781900002f0dd122003b33663212781b789a4206d1300008f0d6ff380003f018fb3ae500234d
:40268000894f3868ca18926bc2508622043352009342f7d1300008f0c4ff3a680c21002008f08cfb002d03d1002008f0dbfc30e0012d23d12300a2331b781a00153a062a44
:4026c00003d8002008f0f4fc23e01f3b042b03d8002003f0ebfa1ce00026744b3000fe54302108f04dfc3100300008f059fb1921300008f06dfc0ce00028d5d0092d08d163
:402700002300a2331b78262b03d00021080008f047fb2300a2331b785f4a9b00d3189b6b290000209847237c012b00d0e2e482235d4d9b00eb5c002b31d023007d331b787b
:40274000002b2cd15a4feb5d002b28d1594ea85d022817d8002802d1082105f0b1fa0821002005f093fa002819d1534b534a0b2108f06cfe002812d10123eb55ab5d013342
:40278000ab550ce082229200ab544d4aab551278eb55012a03d10521180008f01dfb260081363378002b00d1a4e4230075331b78002b00d19ee482239b00e85c002800d0e6
:4027c00098e4230079331b78012b00d192e423007d331b78002b00d18ce4230066331b78002b05d1220000238132137080343ce0230080331b78012b00d17be4032105f03d
:4028000045fa002800d075e42300c0331b68db699847002809d1230000208133803418702070052108f0d8fa64e43678022e1ed0032e4dd0012e00d05ce4224beb5c002b17
:4028400007d12200823213702300022281331a700de0230079331878c0b20028c2d12b22032105f005fb03238134237042e4ea2301265b00ee54144a144b0821002008f060
:40288000e5fd002800d035e48034267032e4c046bcb90000fc0600203cba0000980b0020d8050020a0050020440800200b0200000a02000009020000f9940000ec0900207b
:4028c0008c0a002002020000180a002099950000230079331b78012b84d05c4feb5d132b99d8ea2301225b00ea5401220433ea5419220833ea54564a0433ea500c21554b37
:40290000554a002008f0a2fd002801d0fff7f2fbeb5d80340133eb55012331222370310005f0a6fafff7e6fb89352b78012b01d0fff7e0fb20002c7006f0b0ff200008f0a6
:4029400034fafff7d7fb454b1a0087321278002a70d01d0086352878002801d0fff7d4fb1a0003218a3211703d4ac8331a607d3108f0f2fa01232b705ce03a4c3a4f23009e
:402980007d331a7839785208914203d15a78502a44d107e07878002108f0b4f800232b70fff7befb0222db78134207d0012007f0adfd300008f035fe07f09cfd2300042220
:4029c0007d33db78294d13420dd001206b6913436b61049b61331a7882431a701b78002b01d107f093fd8034637822781b021343042293436a69934208d06a696b616b695f
:402a00001b4b5b69002b01d000209847049b61331b78002b02d1012007f078fd7878002108f070f80022049b60331a70fff778fb200084e5230002213c331a788a431a7041
:402a4000802219780a431a70fff75efb02020000018000ff99950000180a0020f40a0020913000003402002094000020b4020020840c0020f0b5c626760046431a4c17008d
:402a8000a61901247579b6792540264076062d063543072631400e07290000252740bf0639433143aa4200d11d002c400f4b104d800019404359e4069a050e4b2143920daf
:402ac000281819409602436831439b05890a9b0d89021943080104d49a4202dd890a890211430800f0bdc046f40a0020fffffff798030020ff03f0ff7047704754234343d2
:402b000010b5034ad318998604f0aafd10bdc0469c0c002070b5040008f07ffd0500200004f09efdc6235b0063431d4ad3181a0087321278002a2ed0a1331b78002b2ad1a4
:402b400054336343174ad318db8e322b23d9002c21d107f061fc84230220134a9b00d158124c0143d150d1588143d15008f055fd052321680c4a1942fbd1e8230c495b00ba
:402b8000d15084218900545853582343094c2343535008f046fd280008f043fd70bdc046f40a00209c0c002000000a40a4000a4000ff3e0020002000f8b50400302105f04b
:402bc0007ff80d4b0d4d1f5d002f0dd1542161436b181e004c363278002a05d0103169189b6c20009847377054235c4300232d1946352b70f8bdc0468c0a00209c0c002001
:402c0000f8b504000e0008f008fd0700002c01d107f0ecfa200004f023fd27222621200005f00ef8144d002e1cd0c6235b006343124ad31887331b78002b13d0200004f0fc
:402c4000b1fc54236343eb185e600d4efa2233002621200005f058f8330001222721200005f052f854235c43064b2d19ab86380008f0d7fcf8bdc0469c0c0020f40a0020f4
:402c8000b52f00008813000070b50400150008f0b5fb54236343074a0321d318002800d00421197354216143083151182000a84770bdc0469c0c0020c623f0b55b00434355
:402cc00091b00e92954a02919b1805934b7807000c930b899b059b0d0993059b2c33ff331b78db06db0f0d930023089307930393059b7f330f930f9b039a1b78934200d8bd
:402d0000bde0002304936b461b7c0a930a9a0c9b934200d8aee063247c43039b7f4ee4184a34a4003319db78039a9b090693c6237b439b187c335b00f3189b88029a9b05bb
:402d40009b0d0193049b02339b00d118ca78920902d0022a42d08ae0029a14219d582d03ad0d280004f056ff069b002b02d0022b06d07ce0a3591b039b0d9d4277d10ce075
:402d8000a3592a1a1b039b0d9a4270d333195b8828189b049b0d984269d8a35b01999b059b0d994200d21900049a029802329200125a9205920d914259d85949ba005350d4
:402dc000fa21574bba00d0589c1868434900e56004f020ff019ba06063603be0069a022a45d1029a9b58a2591b0312039b0d920d93423cd332194d885288ad049204ad0df5
:402e0000920d954233d8a05b01998005800d814200d20100049a029c02329200125b9205920d914223d8fa215843490004f0f2fe63233b49bc007b430a19906003981b1819
:402e40004a3336489b001b5ad5609b059b0d6350019b5360324abb00d3189c68079aa24205d80d9a002a42d0db68642b3fd1049b013347e7039b0133dbb203933be7089bc0
:402e8000002b27d1fa21059bbd00fc33da6a9c8d1003234aa4055619800da40df06049006043ac5004f0b6fe099bb0601c4e9c4200d9ab51c6235b007b43184a7519d31877
:402ec0000122fc331b8811006b6038000023fff7d1fd0b9054237b4312490b98ca1808339060591838000e9b984711b0f0bdc6237b43039a0a999b187c33084a5b00d31887
:402f00009b880131db0bc9b200223800fff7b2fd01230b9007940893a9e7c046f40a0020980300209c0c002010b507f0b1fa024b5843400a80b210bd50c30000f7b54a43cc
:402f40000c0007006421100008f040fc2018c343db1718401921400008f038fcfa210002c90008f0a9fb0400032803d9fe2802d9fe2400e0042408f050fbd0250b4e01906d
:402f8000ed0073590a200093094b1c43745107f04bf938000099745905f058f8019808f040fb0120e40ba043febdc04600000a400002020070b504000d00262902d0272990
:402fc00007d021e0272104f07bfe200004f048fb1ae000220d49fff7b1ff00280ed12621200004f06dfe200004f03afb54236343074a2000d3185b68984705e0054b01224c
:403000002900200004f080fe70bdc046881300009c0c0020b52f0000c6235b00434310b5034ad3187033197805f03af810bdc046f40a002010b50c00002802d10f4b587258
:403040001873210005f02cf8002815d10c4b0d498c22002c00d08e22022492009858084398509858204398509858a0439850902080001a580a431a50012010bda005002099
:4030800000000a40200c200010b505f015f810bdc82110b5002289000400fff74fff002805d1200005f0d8f8fa22520009e0542308216343064ad3183c331a780a431a70b2
:4030c0006422044b2e21200004f01efe10bdc0469c0c0020d9300000c82110b5002289000400fff72bff002826d1542308216343154ad3183c331a780a4208d01a782000d5
:403100008a431a7005f0a8f8fa22520015e07f2219780a401a70002c02d10c4ba1331c702000002104f0f6ff2000012104f0f2ff200008f0dbf905e06422054b2e2120001d
:4031400004f0e2fd10bdc0469c0c0020f40a0020d9300000f0b5050087b001285bd1464c2378029401930199444b58544448454b01781b7849080390994209d001330095cf
:40318000994207d00021019807f0bcfc002071e000230093032a31d8100008f079fa32320202394c00272000384e394d10301022390037602f6008f063fa039b5b78502bca
:4031c0000ad05f2b18d104222000009b22749900304b1130c91808e00623200004222374009b113099002c4bc918103408f0dafb346010342c6004e03900c4e70122274b48
:403200001a70264b1978c9b2002930d1029b187807f078fc2be000281dd11c4c21680b1e27d01b4b1a680300914222d2521a082a01d9082201e0002a1bd004abdd1d0e4b47
:40324000d2b218782b0007f059fa22682b78d318236001230de00020022d0bd10a4b0b4a103313600a4a10331360013002e0012000e0180007b0f0bd95000020f10c002022
:40328000b10200209400002098030020cc020020d0020020c4020020c80200209403002070b50c4c83001d598d4201d1002a0fd0e15004240849ca58a243ca500123834093
:4032c000064900200a781343dbb20b7007f01ef970bdc046c4020020c802002095030020f0b50600481e89b00c001500242800d9e7e008f0cdf95c285c9393e6e6e6e65ca7
:403300003ee6e6e6e6e6a847e6e647b2e6e6e65c13e6e6e6e6e6e6e63cbaba00ae4f002e09d13b78002b06d0300006f083ff3100300005f0fff8542300227343a749ba5506
:40334000cb183e338fe054237343a44ad3180022190039331a70c6235b0073433e310a709f4ad31874331b78032b00d0a9e0022165e054237343994ad318002239331a7060
:40338000013200e00022c6235b0073439449cb1876331b78002b00d158e2002a04d00221300006f063ff0ae0152c00d189e00021300006f05bff2921300004f081fc032ce3
:4033c00001d01a2c19d154237343844ad3183c331b785bb2002b05db002e0ed1804ba1331e7001e0002e08d17e4b1a68120704d5002219681000fff753ff122c61d154238b
:403400007343764ad3183c331b785bb2002b58db002e56d1724ba1331e7052e0542373436e4a0121d3181a003932117000223e331a70964245d16c4b1978022941d1300060
:4034400006f014ff3de054237343644ad31841331b78002b00d0fde133e0542373435f4ad31800223a331a702be0c624640074435b4b30001c1923007033197804f01cfe13
:40348000230072331b78002b16d0230067331d78012d11d16f342178300004f071fe9c235b007343514a5249d3183533ff331d70300004f0e5f8cde100213000fff7a0fbc6
:4034c000c8e106af08220021380008f0d9f8002e00d0bfe12a2c00d9bce1464e33002c331a7801231a4200d1b4e1434a12781a4200d0afe1a01f162800d97ce108f0d2f852
:403500001a0122017b017b017b017b0117002c012c012c017b017b017b0159017b017b0160017b017b017b017b017b012c016b79db0967d16b78a878002b26d102380e286a
:4035400000d987e108f0aef8120075010f0086011b008601860186018601860178018601860186011e0000228d2467e10123234a8b241370224a137000223f3364e100229c
:403580008a245be10022a42458e101380e2800d960e108f087f855015f015f010f00140017005f015f015f015f015f015f015f015f011c008023012292249b0044e1012233
:4035c000a22401e00122a32480239b023ce101229024802338e1c046800c00209c0c0020f40a0020c4020020f00a00200c070020fb2a0000fc0c00209105002088050020cf
:40360000740300202b78944ad45c002c00d121e1012180230a009b02bd36ff363068184200d117e105af002a00d180e06b68002918d0ea79d20908d01a216a780191072a0b
:403640000cd89200023a92b207e08221ea884900d205d20d01918a4200d801921a0cba701a0e09e01c216a780191072a01d8920001922a78ba7000223b701b0a7b70019b0a
:40368000fa7004339bb2029307f0c7ff734e03900299708a338a728a073180b29a1a914216db728a9b1a032b3add8123f26813540023f168421c92b28b54f168821c92b2b3
:4036c0008b540330f26880b21354738a043325e0f3681c546b46f1681a7a431c9bb2ca54f168831c9bb2ca54029af168c31c9bb2120aca54f368041da4b218190422390039
:4037000008f050f92900f368201d1818019a083108f048f9738a029a0433d3189bb27382039807f07eff012007f022ff92e03b0021007ae008222900380008f033f9082204
:40374000b02106e004222900380008f02bf90422b1218023db0061e03f4aa300d318404a287811005b32125d303101385b68095d12090f2811d807f08bff0c101208101015
:4037800010101010100a1010100e102006e0202004e0402002e0502000e0302002433a7001220d2c38d100202e4c20702e4c207032e02b7801223b7080239b211b012de0c2
:4037c0002b793b702b681a0a7a711a0cba71264a3b711b0efb711378dbb2002b05d00023862113700822203318e01e4a862113700822202312e0184aa300d318184a5b68f6
:4038000011005b32105d3031095d0022c00703d5144802701448027000291bd0bd36ff363068184216d03b0092b2012001f0e6f910e000228c2401e000228e24402303e018
:403840008023012291245b000021e5e6002a00d1b5e5a4e509b0f0bd14bb0000c803002094bb00008805002074030020542343430c4a10b5d3180400d986322910d80022ea
:403880002a21fff72dfdc6235b006343064ad3186a331978c9b2002902d12000fff7b0f910bdc0469c0c0020f40a00204b1e994110b524310022fff713fd10bd542343430c
:4038c000054a10b5d31800223f331a70904201d106f0a2fd10bdc0469c0c002070b5182501224543134be950c9b2114212d05c19247a22405400022291430a007f212243b3
:403900000a40ea540c4a125c002a03d1ea5cff390a43ea54094c01342418e27f511e8a4118214143d2b25958fff7bafc00230120e37770bd840c00208c0a00209803002049
:4039400092239b004343174a10b5d318832292009918002204240a70134959180a70134959180c70124959180a80124959180a708521890059180a608421890059180a8055
:403980008621890059180a708721890059180a60882292009b18012252421a80272107f017fb10bd440800200d0200000e020000120200000f02000092239b00190070b544
:4039c0008e24032541430a4aa40051180c192570084c09190c780d21132c00d10f318e244343a4001b19d21807f0e8f970bdc0464408002047020000f0b5040087b000211b
:403a000007f0cef90921200004f05af980212000490007f0b5fac62326225b006343c34e0593f3180393a2331a70922300219b006343bf4dbf4a0493eb189b18197020008a
:403a400007f014f9011e00d1c6e0039b67331f78059b9a5d049b5b599b78981e0e2800d95de107f01ffea00050015301530150010f005700b000b000b00050015c015c015e
:403a80005c015301922301219b006343ed18a94beb181970002f38d1022a00d03fe1200007f0cafbc6235b006343f2187e321178832201209200aa1817709f4af318aa1804
:403ac000107001209d4a0d33aa1810709c4aff33aa1817809b4aaa18117085229200aa18136084239b00eb181f8086239b00eb181f7087239b00eb181f6088239b00ed18e9
:403b000001235b422b802721bde01221012f00d005e1b8e092239b006343ed18854bed1801232b70002f02d0022a00d0f7e0200007f042fbc62252006243b3187f331d78db
:403b400092239b0063437a490127cb1883218900581800210170784829321818077077480337181807707648ff32181801807548b2181818057085208000181802608422c7
:403b800092009a181180862292009a181170872292009a181160882292009b18012252421a8027316fe092239b006343ed18614bea1801231370002f00d0b0e0624a1721bb
:403bc000ad182b705fe0922292006243ad185f4a1c21ad182b7056e0049b01225f595c4b00930300380007f007f8002825d0039bb878673301381a780e2800d98fe007f050
:403c000047fd080c13828e8e8e8e8e8e8e8e8e8e46000c21002a36d075e0012a7fd17b781421012b7bd12ee0c6235b006343f11808007530007801280ad00921200004f091
:403c400025f800286fd10421200007f0adf96ae0733109789142f0d1002a03d0f3184d33ff3302e05133ff33f318da7870231340102be2d10f22fb7a08219343802b02d035
:403c8000502bdad10921200007f0a2f93ee03a78002ad2d1922304209b00634326490393eb18591808702649200059180a80832292009b188021062209011a7007f060f939
:403cc000039b24221133ff33ed183900280007f069fec6235b006343f6183300c0331b681c4a1b6d29002000984714220921200006f07aff80212000490007f041f927237b
:403d0000a23633700fe0200007f08af9c6235b006343f618a2363378262b04d18de72000fff70efef2e707b0f0bdc046f40a0020440800200b0200000d0200000e0200004f
:403d4000120200000f0200000602000047020000ffff000025b1000092239b001a004243f0b5bf4f0400bf48ba1810180678be4889b0101800780f250290832080001018e4
:403d80000078039004a82d186846007b2870b7481018007804908520800012181268059202292cd1039b013b012b02d9032e00d045e1c6235b006343ad4ffb181a009432aa
:403dc0001278012a0dd866331b78012b00d136e1c62301215b006343ff188937ff37397064e01a007d321278002af1d0c0331b682000db699847002800d020e1e8e7c81e3e
:403e00000b2800d964e107f04dfc0c0041004d00550063019e0063016301e000630163010301032e03d11421200006f0d5ff2b78013b012b09d8002e07d1029b0d2b04d1cc
:403e40002a001321200006f0b9ff9225ad0065430321200006f0a4ff864b7f19ff183a88002a04d00921200006f0befe30e1c6235b0063437e49cb181900c43385310a700c
:403e80001a602621200007f0a3f821e16343ff18794b0021ff183b78012b07d1200007f0bff815e1039b0121002bf7d0200006f077ffe6e7634388218622fd18fe58872342
:403ec00089006918098892009b00aa181278eb1800911b680399300006f08efe021e07d100900399654b300006f086fe011e1ed0c6235b0063435e4ad3181a006732127804
:403f0000002a07d184331b78042b01d0012b01d10c2100e02621200007f05af892239b0063430421fa58200006f026fed0e0200006f036ff504bed182b78022baed02000ca
:403f4000fff75afdc4e00221200006f029ff012e03d1029b11210f2b00d01021200006f03bff2b78013b012b8bd8002e89d1029b0d2b86d1922583230322ad0065439b00fe
:403f80007f19fb181e70374b2721fb181a70364bfb181e70374bfb181e80344bfb181e7085239b00fb181e6084239b00fb181e8086239b00fb181e7087239b00fb181e606a
:403fc00088239b00ff183e805ce70921200003f077fe80212000490006f0d2ff922292006243bb181900a631ff310978002900d047e7a533ff331b78002b00d141e78932de
:40400000ff32bf180f220097200005f05fff5fe02000092103f054fe80212000490006f0afffc6235b006343114a8021d3182622a2331a70c901200006f0b6ff48e0012e5d
:4040400005d1059b2978029a0093049bdce7002e16d12978029a200005f05eff38e0c046440800200d0200000e0200000f020000f40a0020120200000b02000010000100ca
:40408000032e25d10121200005f068ff0221200005f064ff002c1bd10e4b1d004835ff352a78012a14d006264933ff331e7007f0b4fa012307002b70200005f0ebfc0028b9
:4040c00003d13100200004f0e5f8380007f0a9fa09b0f0bda0050020f8b50400062902d0092903d077e1fff787fc74e1c6235b001a004243b84eb218110084321078cc31f1
:404100000d680c2800d966e107f0ccfa0d0020008b0055002000a000a400a800d6000c01150122012d012000122106f051ff2000032106f035fec6235b005c43361932002c
:4041400000238532c4361370336044e1922302219b006343a14a0725d318a14a9a181170832292009818002202709e48181802709d48181805709d481435181805809c48a3
:4041800018180270852080001818026084208000181802808622012092009a181070872292009a181160882292009b18012252421a8025310ce1922302219b006343874a78
:4041c0000820d318864a9a18117083229200991800220a70834959180a708349591808708249133059180880814959180a708521890059180a608421890059180a80862222
:40420000012192009a181170872292009a180f311160882292009b18012252421a801731d6e06343f61867363278012a09d192239b0063436949cb186e495b181a70f33950
:4042400038e00121200006f0abfdc4e0200006f02fffc0e0200006f0e3febce092239b0063435e4a0320d31883229200991800220a705c49591808705b4959180a705b493a
:4042800059180a805a4959180a708521890059180a608421890059180a808621890059180a708721890059180a60882189005b181a80fa39ff398be02978200005f04efe04
:4042c00092239b006343454a2978d318832292009a181170434a0d20991800220a7042495918087041490e3059180880404959180a708521890059180a60842189005918ea
:404300000a808621890059180a708722082192009a181160882292009b18012252421a801f3155e092239b0063432c4ad318324a9b18092214e06343f35c022b81d19223be
:404340009b006343254ad3182b4a9b180a2207e092239b006343214ad318274a9b180b221a701d2134e092239b0063431b4a2978d318832292009a1828792e7b1170194af0
:404380000f27991801220a701749103559180f70164959180e801649591808708521890059180d60842100208900591808808621890059180a708722802192009a18090236
:4043c0001160882292009b180122272152421a80200006f0fdfdf8bdf40a0020440800200b0200000d0200000e020000120200000f0200000702000047020000c6235b008e
:4044000043431e4a70b5d3181a00c03204001568062910d008292dd002292ed101226e331a70e1220731920006f0defbab6b00212000984721e092239b004343104ad3184e
:40444000104a9b181b78132b01d10f4e00e00f4e4021200006f00afc00280bd02b6a0022310020009847002804d12321200006f0affd02e0200001f019fc70bdf40a002035
:404480004408002047020000204e0000b80b000010b50400062909d0082926d0022927d1e1220731520006f09ffb21e0402106f0ddfb002819d02000fff77efa92239b00bf
:4044c00063430c4ad3180c4a9b181b78132b07d17a33ff336343094ad31801226a331a700a21200006f074fd02e0200001f0defb10bdc0464408002047020000f40a0020f2
:40450000f7b50500881e062866d807f0c1f80442535353575300c62464006c432f4b01261c192300c0331f68593b1e700833a27819782800019305f0d7f8230070331978d0
:40454000280005f0a9f8019b28001b78e3181a0090331e708e32230016700c2283331a700f3b1e7005f00cfd642005f05dfe00236e34237028007b68194998472800fb6810
:404580001849984714220921ff32280006f02cfb22e02800fff710fa92239b006b43124a0e21d318114a28009b1801221a7006f00ffd11e0280001f079fb0de009212800a5
:4045c00003f07efb80212800490006f0d9fc06220021280005f0a0fcf7bdc046f40a00208813000019b100004408002003020000f8b50400881e062871d807f049f8043286
:404600003737373b3700c6235b006343344a3549d318c0331a6892239b006343cb1832495b181b78132b12d1136a30490a22200098478021002806d00921200003f026fb84
:40464000002813d00421200006f0aefc47e01369200027499847274a0921200006f0c4fa3de02121200006f0b3fc38e0200001f01dfb34e0c6256d006543194b01265d194f
:404680002b006e331e700921200003f019fb80212000490006f074fc2b0000222f0067331a706f373978200005f006f83b782000eb181a0090331e708e322b0016700d22f4
:4046c00083331a70022374352b7005f059fc642005f0aafd06220021200005f01dfcf8bdf40a002044080020470200008813000019b1000071020000f8b5040000230c26ca
:40470000dab25d1c944201d0032c0cd1022b0dd073430749cf185858ba88002106f0b0ff00233b81fb802b00032de9d1f8bdc046c8030020f0b585b0032809d1002190224b
:40474000d64852008161c161203006f099ff3be1012800d092e10f26d04d6b1c9c46ab1cd97f2c000b090e40022a00d92ee10027af61ef61012a16d0bb4222d1022e0ed14c
:404780006246d17fc64a1288914200d3c3e1c54b0832c918d318eb61a9610300bbe11d00002e00d0b8e10025631cda7f53b2ab4200dab1e1bc4b0135d318a361b94be3617f
:4047c000aae13d00012b00d0a6e1321f012a0dd8b64d0a0060462f001a40c07f120240371218ba181f00c835a261e5613300083b012b0ed8f4230125ab4a5b00d2586319eb
:404800002940db7f0902c91851188832a161e26182e13d00002e00d07ee1631cdb7f5f2b00d979e1a24d2b0072331b78002b28d02b0067331b78002b0ad12b0068331e789f
:40484000f3b20093002b07d01e00013ef3b202e02b008b331b7800932b00783319782a002b0074326f331b7812785b0092001a43012313434a011343009a92011343dbb275
:4048800001e0330000960193032301272a781a406b78d1003b409e0016435b010e431e432b0072331b78002b39d02b0066331b782a003b409b011e432b00673212787533b6
:4048c0003a401b78120216437a4a3b409b0216401e432b007d331b78774a3b4016401b031e432b00c0331b680020db699847734b38401e402b00a2331b784003263b5942e2
:4049000059410b006e4a3b400643db03164079351e432b781f406b4bff021e403e43009b614d023b5a1e9341d0229b031e43664b520040331b78ae50002b03d080239b0075
:404940001e43ae505a4b1a00c03212681e00002a0ad0936d002b07d000209847642106f0abfea623ff33e8546a46d22312795b00ea543300b8331a68d8235b00ea50b27a0a
:40498000163bea549c23327bff33ea54c4230022ff33ea54330067331878d4213300ad324900fc33ff32002803d1986d5b6d685002e0d86d1b6d6850ab50631cda7f434bbd
:4049c000d318a361424be3610125a5e0002e30d06146023acd7f91b2002b08d1022e00d08be02f4b2f481a882818521b18e0012b00d082e0082e07d1e8332b4aff33d058af
:404a0000693b4019ff3b0ae0092e76d1f422264852006b1c8058ff33c01880235b425a1b8a4200dd0a00210092b2223106f0baff63e0012b61d8244b264e1c004134247811
:404a40003055002911d16146c97f06290dd116480335e97f80790140e97706d004251e4c2068a843c1b22943216019000120023a423192b206330870da873ee00025a8426a
:404a80003cd1064ca669ae4238d0e2690500964234d2921b082a21d9082221e0c80300209c000020840d0020fc0c0020c8040020f40a0020fffbffffffefffffffdfffff14
:404ac000ff7ffffffff7ffff48050020940e0020fc0e0020f10c002000020440002a0dd002abdd1d0e4b310041331878d2b22b0005f004fe2b78f618a6610125084b423302
:404b00001978c9b2002907d1902206485200203006f0b6fd00e01d00280005b0f0bdc04648050020c803002070b50f4b050083331c78002c15d104200c490a688243d3b223
:404b400003430b600a4b21004133187805f0daff052005f069fb72b6064b1d6005f0cafc00e00524200070bdf40a0020000204404805002088000020f7b5002501260090b6
:404b8000ebb20193009b1e421ed006f046fd0c226a43174b07009c18218900290ed0d0582189e388228941189a1a06f0fbfe2289e3889b1a9bb2e38000232381380006f0a5
:404bc00030fde8b206f0d4fc76000135f6b2022dd6d106f022fd074b9b79002b04d0fb23054a11680b40136006f01bfdf7bdc046c8030020fc0c002000020440f0b585b0e5
:404c0000150001910293009006f007fd0c230099264a4b43d4180390a188e088e788ee1d80b2cf1bbe4218dbe588491b0025032933dd81219e5831549e58411c89b27554a9
:404c40009e58811c89b275549b58033080b21d54e38804339bb2e3801fe06e4699583679efb20e549e58411c89b277549e58811c89b277549e58c11c89b22f0a77549b5835
:404c8000043080b218182a00029906f08bfee3880433ed18adb2e5800125039806f0c1fc009806f065fc280005b0f0bdc8030020f0b5bf4dbf4eaa1cd77f6b1c85b03f09f9
:404cc000db7fb21d002f00d0fae1d28fdbb2d2b22c2b00d125e111d8082b51d004d8062b29d0072b2ad081e20b2b00d17fe00c2b00d19ce00a2b00d078e25fe00a242f2b2f
:404d000000d1d8e10ad82d2b00d185e12e2b00d06ce2eb1cda7fa84b2e3386e1312b00d17fe100d28de13b2b00d05fe2eb1cda7fa14b3b33aee1eb1cd87f4ee2eb1cdb7f6a
:404d400005244a2b03d19d48fff7eefe0400eb1cdb7f412b00d0a2e1994a9378012b05d153681088403b181a964c02e05068964c403803f025f9002800d031e220008be168
:404d8000012a00d832e2eb1cdb7f0524522b00d091e12b1ddb7f002b04d03800012b00d17ae188e10320fff7a7fc0720fff7e4fe33004133187805f0c5fc15e23200eb1c21
:404dc000d97f46320123502903d113703200473235e1127805241a4200d16ce13200002346321370320047321370033c63e1eb1cdc7f734b9b78a34216d0012c04d0022cd3
:404e000000d0e4e1714800e0714803f0d9f8002800d0c7e1012c00d0bae1320004210700483213788b4313700237fcb243e10524032a00d83fe1eb1cdb7f462b00d03ae1c5
:404e40002b1ddb7f012b40d1330046331b780e20002b3ed0ab1ddc7f6b1ddb7f24021c43574b19891a00a14232d85989a14202d29b89a3422cd1574b9c4229d804d10022c1
:404e80004d4bfc339a6612e0ff235b009c420ed19378012b05d04e4803f092f80023984201d14b4bdb69444a0133fc329366330047331b78002b01d105200ae04649200053
:404ec00002f0f8ff0028f7d103e00220052401e0072002242b1ddb7f002b1ed1330046331b780724002b00d1e5e0ab1dd97f6b1ddb7f09021943324bdb898b4200d3dae0f2
:404f0000344b994200d9d6e080222b4809025200883006f047fd043ccde0002800d1cae060e1eb1cda7f0924012a00d9c3e0310049310b78dbb20193002b00d0bae01e4bd2
:404f40002c3303931b785a4000d14de113400b700b7801275c425c4164003a4200d19ee008780291384007d106f0c0fa039b1b781f43039b1f7092e02e21019802f086fe8a
:404f800000282dd06422154b01983c3319780a401a702e2102f094fe0199080003f0baf83900019803f0b6f83900019831e0c046c803002048050020fc0c00204c420000f5
:404fc0009c0000203242000031420000c0fe0100c0ff0100ff010000840d00209c0c0020834b39001a0087321078002811d01c0086342278002a55d11a0003218a32117070
:405000007c4ac8331a607d31002005f0a5ff2770dfe006f087fadce0eb1cda7f764b2d3338e0eb1cda7f744b31331a706623704aff33d15c4b424b41dbb253746a32137071
:40504000d2e0eb1cdb7f0924432b34d16b4b9a78330048331b78012a03d15b070bd4684b02e01b070ad4674b5b681b021b0c1b020133ff3304e0a0235b0101e0c0231b027f
:405080006149c0330a0013cb13c213cb13c203cb03c2a9e01a70a7e0fff746fd0400002c65d008e0029b029a1b78bb4313701378002b5cd11224002321001a00180054e020
:4050c000d08fdbb280b2062b02d0242b0ad046e0eb1cdb7f0a21102b44d1330001224a331a703ee07b1ec0b2dbb2032803d806f0cffa38281a0c50225a433f498a18a91d07
:40510000c97fbd32ff320906116050225a433a498a18bd32ff321168090e0806691dc97f09040143116050225a4333498a18bd32ff321168090c0804291dc97f0902014341
:405140001160502253432c4ad318ff22bd33ff3319689143ea1cd27f0a431a6001e0052100e00221002338001a00fff747fd2800902200215200203006f082fa3300002183
:40518000413642333078197005f0bcfc05b0f0bd0700022c00d047e632000821483213788b4312e0012c07d1320004214832137806270b43137037e60627022c00d033e6b1
:4051c00032000821483213780b4313702ce607272ae60120fff790fa0220fff7cdfcc6e7082468e7072466e7022464e7052462e7f40a002025b50000fc0c00209c0000204d
:40520000c0ff0100c0fe0100840d0020022906d1002804d1a823024a01395b00d1547047a00500207047000030b501002748284a0468284b22400260a120c0001c58264a6c
:40524000002522401a50a0222448d200985092239b004b43224ac620d318224a40009a181570214a214c9a181570214a9a181570822292009a1815701e4a9a1815701e4a32
:405280009a181570812292009a1815801b4a9a1815708d2292009b1802004a43a2181d601300fc339d64dd657932873b1d7015700300a94203d1124a5132ff3211704b4300
:4052c000e0180023a430036030bdc046bc000a40ff80ffff00000a40fff9fefb00060104440800200302000006020000f40a002007020000090200000a0200000b020000dc
:40530000a005002070b5c624050064006c43fff78bff0c4b28001c1923007033197850331b689b6998472300210067331b787d316634054a012b00d000230b705355237030
:4053400070bdc046f40a00208c0a002070b50500022925d1c62464004443124b1c192200012326009a3213702c3a1370c036fff7c9ff336800211b6928006a34984721789e
:40538000c9b2002903d1336828009b6b98470621280005f01dfe044a0921280005f024fc70bdc046f40a0020ee02000010b5022905d1c8220731920005f016fc04e00829e2
:4053c00002d1043905f004fe10bd000070b5c62464004443184b0b211c19220000239a321370243a1370050005f0f6fc230067331b78012b09d128000e2105f0e9fd0f4ad9
:405400000221280005f0f0fb15e02300c0331e680a492800f36a683498472378084a5b00995a2800336b98472800736b98470a21280005f0cdfd70bdf40a002088130000a0
:405440002abc000070b50400062908d0082948d002294cd11b22073105f0c6fb47e0244905f004fc002838d092239b006343214a995815008978032904d11431200005f0de
:40548000a7fd34e08b21d3188f2289005918096892009a181160c6225200624316498a1890217532127889005b18012a03d10b321a70262102e010220b211a70200005f022
:4054c00087fd92228f23920062439b00aa18d2181621200005f072fc09e0200005f0a0fd05e0102105f078fc200005f0e1fd70bd1810000044080020f40a002037b50400ae
:40550000881e08285fd806f0c3f8052e2533335e5e5e3700200005f04ffe92239b0063431d00294a5935ff35ad1899582800242206f038fac6235b006343244a2900d3183c
:405540001a00c033fc321b681566db6b204a2000984738e0c6235b0063431c4ad318a4331b685b0604d50d21200005f031fd2ae0200005f055fd26e092218900614312483a
:405580008b2243181d008135ff352d6892009a1815608c2292009d18083a9b18db7941185b065a0f922363439b1857339b001b5802222b608b239b00c918009101230021d8
:4055c000200004f083fc37bd44080020f40a00204db10000f7b50500062909d008292ed002292ed1c8220731520005f0fdfa28e0c6235b004343134a9224d318190000261b
:405600000122a4007631773344430a701e700e4b0e4f009331000223e05905f0edfab04209d080233c199b00e41826700c21280005f0cefc05e0280005f0f2fc01e005f045
:4056400037fdf7bdf40a0020ffff000044080020c6235b0043432c4a0021d3181a006e3270b5117092229200424304002748012582182748101801702648101801701800e9
:40568000813005700138017081208000121811801a008a33fc32ff33916419708c421ad12100200004f05afc2900200004f056fc0221200004f052fc174b1a00fc3294658e
:4056c0001a005932ff3214701a0048335132ff32ff3314701c70200004f052fc9c235b005c430e4ba0221c1900232e34ff3423700b490c4bd2009950a121c9005a580a481a
:4057000002435a5070bdc046f40a0020440800200102000002020000a00500200c0700207f06090400000a4000060104f0b5c6256d002b0043432c4a0400d318187c85b0fb
:4057400001909220793380001b786043dbb2274e0293274b3018c3181f780392022922d12000fff775ff3722002f06d1019b002b08d0029b002b05d132220921200005f055
:4057800033fa2ee02a006243039b9a18be321288002a22d092239b006343f618154bf61801233370e9e708291bd1002f0ad000221a70019b0a31934210d0029b93420dd132
:4057c00002390be00b4b1121c0180378002b05d007700131200005f0fbfb1221200005f0f7fb05b0f0bdc046f40a002044080020030200004602000010b50400022905d1b1
:40580000fff726ff0b21200005f0e2fb10bd000070b5040002292bd1c6235b0043431f4a1f49d31801227a331a7008681d4a1e4b02400a60a121c90058581c4a1c4d0240fa
:405840005a50a0221b49d200995080222b68520313432b60322004f0e7fc80222b68520213432b6037220921200005f0bdf914e0082912d10e4b104a19680a401a601968d0
:405880000e4a0a401a60c6235b004343034ad31800227a331a7005f0e5fb70bdf40a0020bc000a40ff80ffff00000a40fff9fefbc4000a4000060104fffffeffffffefff93
:4058c00010b5040002291cd1c6235b0043430e4a0e49d3181422c0331b6852421b6a9847002803d02000fff771fd0ce00921200002f0ccf9002806d00421200005f054fbcc
:4059000001e00829eed010bdf40a002088130000f8b59223060082229b00c624734326489200c3189b18002264007443234f1a703c19227c0500002a2ed02200663212789f
:40594000012a29d1210081310978002924d021007d310978002901d11a701de02300c0331b683000db699847002815d1230079331b78012b04d1b934227817331a420bd05a
:40598000c6235b007343ff183b00c037703319783b6830005b69984792208123800070439b002818c21800231380054a82181370044a80180370f8bd44080020f40a002002
:4059c0000a02000009020000c623922170b504005b0043432e4a8900d318180061432d4d2d4e69188e193688ae3006808a26b6008e193688468089208000091818000126e9
:405a00000988ac300180373806700e3800781600012804d1c0331b6820009b689847200004f0aefa92239b001a00902162438900aa18521801211170c62252006243b218cc
:405a4000100067321278fc30016d002a00d1416d8f2263439200eb189a1811604a0104d5902292009b1803221a7092228f23920062439b00ad18ea181621200005f09ef9f5
:405a80002000fff745ff2621200005f0a1fa70bdf40a00204408002026020000f0b5c6256d004543794b92225d192b000400c0331f688c239200624375489b008618f318b3
:405ac0001b6889b007938c239b00d3181b18029119685b8809039b049b0d05938b239b00f3181b68890d06938a239b00d3181b18019199885b6889051b039b0d0393029b9d
:405b0000890d0491062b6dd0082b00d1a6e0022b00d0b8e0fa2209215200200005f064f85c4bf6183378012b02d100233370aae02b0075331b780026012b01d1ae352e88d2
:405b400092239b0019006143514a53485118091809780498090700d5039863434f49d3185b181b78f539ff398b430d39002b03d1019b59430b0003e0059b019d4b43694375
:405b80009db202959225ad006543ac46444d6244ac46019294446a46654612892a808a25ad00ac46019a9444654629808925ad0081b252191180b34207d003d902992000cb
:405bc000fb6a98473b6b322109e0c6235b0063432e4ad318ac331b88984254d83b6b2000984750e04021200005f040f8002847d0069b07989a0a049b92021a43039b99023b
:405c0000284b1a400a43290018400300fc314a65019a254892021343059a0340120513438b652000fff7d0fe2b00ae3319882000fb6a98472b005435ac33198820003b6bca
:405c4000ff3598472b785b0703d47b6b2000984719e0bb6b00212000984714e08f2306999b00f318196090239b00f618142333708f2382189b00d2181621200005f09ef8c4
:405c8000200005f015fa09b0f0bdc046f40a002044080020060200002f0200003302000026020000ff03f0ffffff0fc070b50021040005f075f8c6235b006343094a00216c
:405cc000d3181a006e3211709d7c2000012d06d105f06bf82900200005f03ef901e005f089f870bdf40a0020c6235b0043431e4a10b5d3181a00c0320400126802291bd14e
:405d0000c821136a890000229847002809d12000072105f05df9154a0921200004f064ff21e00921200001f0b1ff00281bd00421200005f039f916e0082914d119007631a7
:405d4000097801290cd19b7c012b09d1136a0849002298470028dad02000fff7a7ff02e02000fff733fb10bdf40a002014050000b80b000070b50500072921d0082922d0c6
:405d8000022922d1c62464004443104b1c192300c0331e68503b197873699847002376342370280073680a4998472800f3680949984714220921ff32280004f015ff04e0ff
:405dc000fff704fb01e0fff771ff70bdf40a00208813000019b1000010b50400072910d0082912d002292ed1fff78cfa92239b006343154ad318154a9b1801221a701a32da
:405e00001ae0032105f0e4f81de092239b0043430d4ad3180d4a9b181a78002a11d000221a70c6235b004343094a0a49d318c0331b681b699847084a0921200004f0d4fe75
:405e400001e0fff733ff10bd4408002045020000f40a002019b1000071020000f7b5c6256d004543624b04005d192a00673216783a3212780f00d2b201920093022905d08b
:405e800000d2b3e0052900d888e0afe0594d5a492b5c002b09d192228023920042439b008a18d218137801331370922380229b0063439200cb189b181a78032a17d9032240
:405ec0001a70c6235b006343009a2000d31876331b78012b04d1012e02d1fff7e7fe01e004f088ff0121200004f05aff7ee02b5d002b02d000232b550ce02000fff794f96f
:405f0000002e07d1c6235b006343009ad31801226e331a70002c02d00121295563e005f07cfb05210700200001f0cafe0421200001f0c6fe0721200001f0c2fea1212f4b1c
:405f4000c9002d33ff331c702d4b2e4a58582e4e02405a50a0222d49d20099502c4b38001c703300fc339c65330005275933ff3349361c70ff3605f054fb264b1422072131
:405f80003770200001f0c0fe0123214a39001370200002f07ff9002828d0bde7122104f01bff019b002b0bd076352b78002b03d0032f05d0002e03d12000fff777fe15e01a
:405fc0000321200004f0ecfec6235b006343009ad318190000228531c4330a701a600221012e00d00521200004f0f2fff7bdc046f40a002094050020440800200c070020b7
:4060000000000a40770febffa005002088f01400e7060020d99a000010b5092902d1093104f0d6ff10bd10b5062908d0082909d002290ad11c22073104f0d6fd05e0fff747
:4060400035fe02e0202104f0c3ff10bd10b50421040004f0a5fec6235b006343054a1221d31867331b78002b00d10739200004f0afff10bdf40a002070b59224a40044434f
:406080000c4e0421a259050004f076fd8e22331992009b1803221a708e239b00e218921928000f2104f08afe2800262104f090ff70bdc0464408002070b50500062908d083
:4060c000082926d0022927d16422073104f08cfd22e0402104f0cafd00281ad0c62464006c430e4b28001c1923007033197850331b687d349b6998470023237092239b0041
:406100006b43074a28009b5803229a70fff7b4ff02e0280004f0ccff70bdc046f40a002044080020c6235b001a00424370b5294d0400aa18c032881e1268062849d805f04d
:40614000a7fa04111a1a1a481e006343eb18703319782000536998470a220921200004f043fd36e001226343eb187d331a702000fff782ff2de0200004f09aff29e0d369c1
:4061800020009847011e1dd006220021200003f0c3fe37220321200001f06afec6235b006343eb181a00012181321170002280331a7092239b005c43074b1c19074be41841
:4061c000227006e0200004f0ebfd2621200004f0fffe70bdf40a0020440800200202000070b5040002292fd1c6235b004343174a174dd3181a0066321278012a0cd11900ed
:4062000081310a70002280331a7092239b0043431049eb185b181a702000fff779fb92228e21920062438900ab185b18032119708e239b00d2180b312000aa1804f0befd11
:406240002621200004f0c4fe70bdc046f40a00204408002002020000f0b5c6277f003b004343534d0400eb18fc33881e85b09e6c062800d99ae005f00bfa047385858d9991
:40628000950092239b0063434a4ad3184a4a9b181a78012a06d1002101321970200003f03bfe83e0c6235b006343eb181a0019004532ff321288fc319205920d94468a6cd8
:4062c00032211203920d039263224833ff3362431b785b065b0f9b1841339b00eb185d68db882a03920d02924a439b040192334a9b0d2a40180510430500120e019f01d02c
:4063000059430f002e4b334066461b0100d5039e1c220921200004f067fc92239b006343244a6946d3188a22898892009a181180244a25499a181780892292009a1816806f
:40634000029a0d40920215438d2292009b181d60c6235b005c43164b1c19fc34e56525e067432000ed19032104f01afd2a0000238532c43513702b601c220921200004f059
:4063800033fc13e02000002104f00afd200004f047fe0be02000002104f002fd200004f087fe03e01621200004f012fe05b0f0bdf40a00204408002007020000ffff0fc06e
:4063c000ffffff8f26020000ff03f0ff92239b00434310b5274a0400d318274a9b181a78100009380a2844d805f052f9061a35434343434343431a00c6235b0063431f4ad1
:40640000d318663319781e4a002901d1013100e0002119702000115503f0b2fd1e2125e0c6235b00634315490020cb1819007531087067331b782221012b17d11f210a2a42
:4064400014d02000202104f0c3fd0e4a0921200004f0cafb0de0c6235b006343074a1b21d3187d331b78012b00d01a21200004f0affd10bd4408002047020000f40a00209f
:406480008c0a002071020000f8b592239b004343414f424afb1804009b18881e1d78062878d805f0f5f8041c262d31776900132d0fd1c6235b006343394ad31867331b7886
:4064c000002b04d13821200004f05afd01e0012159e02a000021200003f01efd5ae02000032104f05dfc1b220921200004f07cfb50e00021132d46d12000fff7d7fb49e0ad
:406500000121132d31d1f7e70821200004f0aefb00280bd092239b0063432000fa58042104f02afb2000fff751ff33e0132de3d01c49200004f09afb011e16d00f260b2d9e
:4065400004d00a3d2e00751eae410d369225ad00654320007a59042104f00efb7a5931000232200004f02afc10e0200004f018fc200004f055fd0de0132dbdd010212000f1
:4065800004f02afc0221200004f00afc2621200004f01efdf8bdc0464408002047020000f40a002010100100f7b504000800c62149000b006343774e774df318c0331f68b8
:4065c00092239b001a009c466243744baa18d2180238127800966346082800d9d9e005f057f80545666666d8d8d82500093a10000a2a00d9cde005f04bf806080dcccccc49
:40660000cccccccc0f007b6c00e0bb6c644920009847bee0fb6cf9e70b006343009ad61867363378012b1dd17b6defe76343eb1819008531ff3109788c4666465949591889
:406640000e700a2a42d0132a00d191e0092a34d0922292006243534bad18ed182a78012a00d092e0200004f023fd92e063434d49eb185b181b78032b15d00d210a2a04d00a
:406680000b3a511e8a410f23991a922292006243444baa182000d21804f090fb2621200004f096fc75e02000fff790fe71e0132ad8d0200004f0b4fc6be06346012b5dd183
:4066c0000a0020000e2104f079fbc1e76246032a44d18a32ff326243009886183200673212789446002a39d1307c012836d132007d3212780192812292009a180092019a2e
:40670000002a1cd18226009ab60012889e19002a07d1307024481818027024481b181a7002e03378002b01d00c230b70922381219b0063438900eb185b18013216e0634684
:40674000009a20001380fb699847002800d07fe7703631787b692000984779e7922381229b0063439200eb189b1800221a806fe76346032b02d001230b7069e792229200c8
:406780006243084bad18ed182a780021200003f0c3fbf7bdf40a002044080020470200004db1000022020000090200000a02000010b50400881e042815d804f069ff030dcf
:4067c000111111000021200003f0c8fb03220021200003f0a1fb06e02000fff737fc02e0200004f065fc10bd10b50400881e062849d804f04dff04122f3133483d002000db
:40680000402104f0bdfb0021200003f0a7fb0d220021200003f080fb35e0922391209b00634319491a008000cb181b180020187091238a189b00d2182000132104f0befa46
:406840002000032104f0acfa1b220921200004f0cbf918e0002110e001210ee00821200004f004fa00280bd02000fff7effb0ae01021200004f0b0fa0221200004f090fa0a
:40688000200004f015fc10bd4408002070b50400881e062872d804f0fbfe0421414141455400c6235b006343354a2000d318c0331d6892239b006343324ad318324a9b184d
:4068c00019886b6898472000eb6830499847c82209215200200004f087f94fe0c6256d006543274b27485d1992239b006343c3188d202a008000fc321b18916c1b6811657b
:40690000d365d16420008b35fff75ef82b78002b34d10121200002f051ff2fe0200004f0c7fb2be02000092101f0caf980212000490004f025fb06220021200003f0ecfa19
:406940001ce0922290211825920062430d488900831859180d708f2189005918c6235b006343074d0a00eb18fc339b6c20000b60162104f023fa2000fff798f970bdc04603
:40698000f40a0020440800202602000019b1000070b50400881e082871d804f079fe051a5c5c5c7070706000c6235b006343344a3449d31892221800920062435258c03355
:4069c0009168fc301b6881641b6c2f4a2000984755e09225ad0065432a4e2c4b7519eb181b78032b04d11521200004f0f1fa46e08f239b00e918b03b6343214ad3181a000a
:406a0000fc32906c7533086090211b7889006d18002b03d108332b700f2107e0116d200004f0ecfc002805d126212870200004f0cffa04e0042320002b7004f039fb922208
:406a40008f23920062439b00b618f2181621200004f0b4f913e0200004f0e2fa0fe092239b006343074a0949d3181a008532ff3212785b181a700021200003f04dfa70bd3b
:406a8000f40a0020440800204db100002202000010b50400881e0b2846d804f0f9fd064545452b452f4545454542b4220921200004f09af8c6235b0063431c4ad3181a7c3f
:406ac000012a31d11a0079321278002a2cd192229200624316498a18164952181278132a22d81122a233ff391a70ff39200004f05bfa19e0200004f093fa15e092239b0033
:406b000063430b4ad3180c4a9b181b78312b04d81221200004f05cfa06e0200004f06af902e0200004f0c4fa10bdc046f40a002044080020020200000102000037b5040099
:406b4000881e062828d804f0a3fd040e1414162714000121200003f001fa0d220121200003f0daf918e01b220921200004f03cf812e012210de09220002280006043074db7
:406b8000009201210823405904f036f8414241411131200004f01cfa37bdc04644080020f7b50400881e0b2800d9bee004f070fd06274d628abaa3bdbdbdbdabc622520067
:406bc00062435a4f1600bd182b0074331b78062b06d1c0352b6856491b6920009847a4e0200004f029fbba190d327e35ff322b78002100922000012203f068f995e002210e
:406c0000200001f05df880212000890104f0b8f9c6235b006343454a2000d318012276331a7092239b006343424ad31880229200991800220a7040495b18f9391a70ff3946
:406c40001b3203f0d1ff282138e0c6235b006343364ad31875331b78012b0bd192239b006343344a2621d318344a9b181b78012b36d13ce0c6235b0063432c4ad31876335e
:406c80001e78f6b2002e32d19225ad006543294b31005d19284b2000ed182b7801332b7003f05cf91321200004f092f93100200003f054f92b78062b37d12721200004f050
:406cc0008bf832e09220012280006043194d009204230021405903f08fff002804d01421200004f075f920e0200004f099f9200004f096f919e02000102104f06df82000ee
:406d000004f0d6f911e0c6235b006343074ad31876331b78002b08d180212000890104f043f902e0200004f065f8f7bdf40a002019b1000044080020010200000b02000053
:406d400037b50400881e0a2849d804f0a1fc061e2c2c2448484848482c0092229200130063431f491f48cd182a0001237d32ff3210601900009220000f2203f0a7f81a4b21
:406d8000ed182b7801332b7029e019220121200003f02aff23e092239b006343104a2000995804f06ff80121200000f089ff80212000490104f0e4f80921200000f066ffc7
:406dc000002808d0c6235b005c43084b1c191323a234237003e01221200004f0f9f837bd44080020018000ff02020000f40a0020f7b5030054205843784c00252018060087
:406e00002d3635700f89764d01923d4080273f02bd4200d0c6e08d6801270561ac4605002c352f7062463f25154080225242154305740500019a4c3582646a482f70c05c2c
:406e4000002800d09ee04878b84200d09be0087ac006c00e0138052800d994e004f018fc032a4b7c7c8b4889ff210902884200d089e05d49cd5c002d00d184e054265e4380
:406e8000a1192c310d7059499800425800209446524fad00624681191258c91904300a618542f7d1542159437918c88a800a8002c8824ae04889ff210902884263d14c4963
:406ec000c85c00285fd054265e43a1192c31087048499d006a5800259446404f8000624671195259c91904350a618542f7d154215943791829e0404d58002d5c042d42d918
:406f00004e893e4998004058c7880178b7420bd154255d430439661989102c363170c9b201318900002605e04018691acdb2002dead128e00436b14204d077198259e719be
:406f4000fa60f7e75421594361183f200d7c284040252843087416e05021594328484118c331ff310978ca070dd55421594361182d31022004e054210120594361182d3198
:406f8000087000e037705421594361180d003a3108780321602601404801697cb1430143697401e002213170542529003f2659436118087cb043402803d14631097800298d
:406fc0000ad15d432900103161181800019b9847002364194c342370f7bdc0469c0c0020c080ffff8c0a002075030020780300207c030020800300208403002088030020b0
:40700000fc0c0020c6235b0043430a000d4970b5cb1819007d310d7803210c00012d07d0db791b090b4003d00934022b00d0083c542343430449cd1808332c735918904710
:4070400070bdc046f40a00209c0c0020c6225200f8b5130043430c001749cb181d0067352d78012d01d19e7a00e01e7b42438b186a331f780423002f14d18a5c022a11d1ae
:4070800072b2002a01da002d0cd1c6235b004343c9180323ca7992081a4003d00933022a00d0083b5422424304498d1808322b735118a047f8bdc046f40a00209c0c002091
:4070c0007047000070b554244443044d6359002b02d098470023635170bdc0469c0c0020f8b5b123b0253d4cad009b00e35862599a436251ae229200a350002b0dd0c0260a
:407100007601334209d0364b1b68002b02d0002108009847635933436351fd239b00e3588a23db00e3582d4d002b27d02d4b2e4eea582e4fea50043be85880239b00184044
:4071400012d08022ab5952021343ab51642003f06bf81022ab599343ab513b68002b0dd000210f3a080008e0aa59214b1340ab513b68002b02d0020001009847d5239b0027
:40718000e258c023db031a420ad0d222134992008b50134b1b68002b02d0012100209847d5229200a15802220c4b114214d0d4208000195891431950d22189005a50d02274
:4071c0000121d2009b58db0b99430a4bfc331b6a002b01d000209847f8bdc04600000a408c030020440400001c06000090030020fffffeff0c070020f7b5c44bc44c1f00f9
:40720000e258002a00d16ce1e3589b050cd596220020c04b5200985408211b6898478822a0239200db00e2508023e2591a4207d0a022b749d2008b500121b64aac33d154b2
